:1000000008C1000037C1000035C1000033C1000045
:1000100031C100002FC100002DC100002BC1000024
:1000200029C1000027C1000025C1000023C1000034
:1000300021C100001FC100001DC100001BC1000044
:1000400019C10000E9C3000015C1000013C1000080
:1000500011C100000FC100000DC100000C94260B5F
:1000600009C100000C94C6090C94FC0903C10000EE
:1000700001C10000FFC00000FDC00000FBC0000087
:100080009FC40000F7C00000F5C00000F3C00000EE
:10009000F1C00000EFC00000EDC00000EBC00000A8
:1000A000E9C00000E7C000005EC50000E3C000003A
:1000B000E1C00000DFC00000DDC0000027C6000076
:1000C000D9C00000D7C00000D5C00000D3C00000D8
:1000D000D1C00000CFC00000CDC00000CBC00000E8
:1000E000C9C00000EF0BF30BF70BFD0B030CEE0B7D
:1000F000090C0F0C150C1B0C210C270C2D0C330CB0
:10010000EE0B390C3F0CE90B00000A0B02090C0D39
:100110000E080703040100000000000000000000BA
:1001200000000000000000000000000000000000CF
:10013000000000001211100000000000000000008C
:1001400000000000000000000000000000000102AC
:1001500010202008081020401020408002010201D9
:100160000804020101020408102040808040201091
:1001700008040201800402018040201008040201EA
:100180000804020101020408102040800102040852
:10019000102040800505050507050808080802022B
:1001A00002020A0A08080404040401010101010111
:1001B00001010303030303030303040707070C0CF4
:1001C0000C0C0C0C0C0C02020202060606060606BB
:1001D00006060B0B0B0B0B0B0B0B00002200250074
:1001E00028002B002E003100340002010000050120
:1001F00008010B0100002100240027002A002D0027
:100200003000330001010000040107010A019D01D3
:100210002E0A11241FBECFEFD1E2DEBFCDBF00E01A
:100220000CBF12E0A0E0B2E0E0EDF2E200E00BBFB4
:1002300002C007900D92A833B107D9F713E0A8E3E5
:10024000B2E001C01D92AD3AB107E1F711E0C9E09B
:10025000D1E000E006C021970109802FFE010E9435
:10026000AB0EC730D10780E00807A9F70E945C0AEF
:100270000C946611C5CE66E170E08BE692E0EFD695
:1002800068E170E088E692E0EAD66AE170E085E62F
:1002900092E0E5D66EE270E082E692E0E0D660E3BE
:1002A00070E08FE592E0DBD662E370E08CE592E0EF
:1002B000D6D662E270E089E592E0D1D664E270E0E1
:1002C00086E592E0CCD666E270E083E592E0C7D6A0
:1002D00068E270E080E592E0C2D66AE270E08DE408
:1002E00092E0BDD66CE270E08AE492E0B8D66CE1B0
:1002F00070E087E492E0B3D66EE170E084E492E0CF
:10030000AED660E270E081E492E0A9D664E370E0EA
:100310008EE392E0A4D662E070E08BE392E09FD699
:1003200063E070E088E392E09AD626E040E052EC89
:1003300061E070E083E093E0C1C78BE692E0B1D565
:1003400088E692E0AED585E692E0ABD582E692E013
:10035000A8D58FE592E0A5D58CE592E0A2D589E5F8
:1003600092E09FD586E592E09CD583E592E099D511
:1003700080E592E096D58DE492E093D58AE492E010
:1003800090D587E492E08DD584E492E08AD581E42B
:1003900092E087D58EE392E084D58BE392E081D51D
:1003A00088E392E07EC52F923F924F925F926F92C8
:1003B0007F928F929F92AF92BF92CF92DF92EF92F5
:1003C000FF920F931F93CF93DF93CDB7DEB7C05447
:1003D000D1090FB6F894DEBF0FBECDBF6FE172E05A
:1003E000CE01C7960E94120D83E093E073D6892B4D
:1003F00009F023C18E010F5F1F4F66E072E0C80154
:100400000E94120DB801CE01C7960E94370E7C01E2
:10041000C8010E94B90CEF28F1F0CE01C7960E94E6
:10042000B90CC05CDF4F0FB6F894DEBF0FBECDBF76
:10043000DF91CF911F910F91FF90EF90DF90CF90C0
:10044000BF90AF909F908F907F906F905F904F90F4
:100450003F902F90089525E030E044E050E0BE0149
:10046000695C7F4FCE01C1960E943A0E29E030E0D0
:1004700046E050E0BE01695C7F4FCE018B960E9442
:100480003A0E2DE030E04AE050E0BE01695C7F4F5B
:10049000CE0185960E943A0E21E130E04EE050E018
:1004A000BE01695C7F4FCE014F960E943A0EBE019D
:1004B000695C7F4F83E093E00E94B00ACE01C19651
:1004C0000E947F0E21966CAF7DAF8EAF9FAF2197BC
:1004D0002DAC3EACCE018B960E947F0E6B017C0151
:1004E000CE0185960E947F0E4B015C01CE014F9696
:1004F0000E947F0E2B013C014AE0C8010E946A0D58
:100500004AE0B401CE0107960E946A0D4AE0B601A6
:10051000CE010D960E946A0D4AE06DAD7EADCE0112
:1005200049960E946A0D6AE072E0CE0143960E94ED
:10053000120DBE01675E7F4FCE0143960E94E10D12
:100540006FE072E00E94FB0DBE01635F7F4F0E946F
:10055000E10D67E172E00E94FB0DBE01695F7F4F14
:100560000E94E10D60E272E00E94FB0DB8010E9462
:10057000E10DBC0183E093E0F3D7CE0143960E94E6
:10058000B90CCE0149960E94B90CCE010D960E947D
:10059000B90CCE0107960E94B90CC8010E94B90C93
:1005A00082E02816310409F48BC00CF457C084E0B3
:1005B0002816310409F405C10CF4D8C085E02816CA
:1005C000310451F5B201660F771F440C551C440CE1
:1005D000551C440C551C640D751D8EE392E044D5EA
:1005E000B401660F771F880C991C880C991C880C25
:1005F000991C680D791D8BE392E036D5B601660F24
:10060000771FCC0CDD1CCC0CDD1CCC0CDD1C6C0D68
:100610007D1D88E392E028D5CE014F960E94B90C4B
:10062000CE0185960E94B90CCE018B960E94B90C22
:10063000CE01C1960E94B90CF0CE49E263E073E0AE
:100640008E010F5F1F4FC801DBD7B801CE01C796DF
:100650000E94260DC8010E94B90CCFCE211431048E
:1006600009F459C02A942328B9F6B201660F771FFE
:10067000440C551C440C551C440C551C640D751D34
:1006800082E692E0F1D4B401660F771F880C991CC2
:10069000880C991C880C991C680D791D8FE592E0D7
:1006A000E3D4B601660F771FCC0CDD1CCC0CDD1C2F
:1006B000CC0CDD1C6C0D7D1D8CE592E0D5D4ACCF4F
:1006C000B201660F771F440C551C440C551C440C9A
:1006D000551C640D751D89E592E0C6D4B401660F02
:1006E000771F880C991C880C991C880C991C680D24
:1006F000791D86E592E0B8D4B601660F771FCC0C61
:10070000DD1CCC0CDD1CCC0CDD1C6C0D7D1D83E5D3
:1007100092E0AAD481CFB201660F771F440C551C1A
:10072000440C551C440C551C640D751D8BE692E061
:100730009BD4B401660F771F880C991C880C991CF8
:10074000880C991C680D791D88E692E08DD4B6015D
:10075000660F771FCC0CDD1CCC0CDD1CCC0CDD1C1B
:100760006C0D7D1D85E692E07FD456CFB201660FF9
:10077000771F440C551C440C551C440C551C640D2F
:10078000751D80E592E070D4B401660F771F880C68
:10079000991C880C991C880C991C680D791D8DE496
:1007A00092E062D4B601660F771FCC0CDD1CCC0C36
:1007B000DD1CCC0CDD1C6C0D7D1D8AE492E054D454
:1007C0002BCFB201660F771F440C551C440C551CEF
:1007D000440C551C640D751D87E492E045D4B401AA
:1007E000660F771F880C991C880C991C880C991C23
:1007F000680D791D84E492E037D4B601660F771F47
:10080000CC0CDD1CCC0CDD1CCC0CDD1C6C0D7D1D62
:1008100081E492E029D400CF1F920F920FB60F927D
:1008200011240BB60F922F933F934F935F936F93C7
:100830007F938F939F93AF93BF93EF93FF93809199
:10084000700287FDB5C08091700220916E0230E089
:10085000992787FD90950C96821793070CF481C019
:10086000809170028F5F809370028091700299274F
:1008700087FD90950C96821793070CF044C08091E9
:1008800070028C300CF03FC02091840030918500C4
:1008900080917002992787FD90950C96FC01EE0FD0
:1008A000FF1F8E0F9F1FFC01ED58FD4F818192812C
:1008B000820F931F9093890080938800809170022B
:1008C000992787FD90950C96FC01EE0FFF1F8E0F68
:1008D0009F1FFC01ED58FD4F808186FF28C080914D
:1008E0007002992787FD90950C96FC01EE0FFF1F73
:1008F0008E0F9F1FFC01ED58FD4F808161E08F73CB
:100900000E94860C14C0809184009091850004960A
:1009100080349C49F8F08091840090918500049681
:1009200090938900809388008FEF80937002FF91ED
:10093000EF91BF91AF919F918F917F916F915F9157
:100940004F913F912F910F900BBE0F900FBE0F90C4
:100950001F90189580E49CE990938900809388000B
:10096000E3CF80917002992787FD90950C96FC014A
:10097000EE0FFF1F8E0F9F1FFC01ED58FD4F808172
:1009800086FF6ECF80917002992787FD90950C9617
:10099000FC01EE0FFF1F8E0F9F1FFC01ED58FD4F56
:1009A000808160E08F73B2D720916E0230E058CF23
:1009B000109285001092840020916E0230E050CF9A
:1009C0001F920F920FB60F9211240BB60F922F9316
:1009D0003F934F935F936F937F938F939F93AF93C7
:1009E000BF93EF93FF938091710287FDB4C0809114
:1009F000710220916E0230E0992787FD909548960C
:100A0000821793070CF480C0809171028F5F8093EE
:100A1000710280917102992787FD909548968217FF
:100A200093070CF043C0809171028C300CF03EC0F3
:100A3000209194003091950080917102992787FD53
:100A400090954896FC01EE0FFF1F8E0F9F1FFC0133
:100A5000ED58FD4F81819281820F931F90939900F1
:100A60008093980080917102992787FD9095489610
:100A7000FC01EE0FFF1F8E0F9F1FFC01ED58FD4F75
:100A8000808186FF27C080917102992787FD90950C
:100A90004896FC01EE0FFF1F8E0F9F1FFC01ED58C3
:100AA000FD4F808161E08F7331D714C08091940035
:100AB00090919500049680349C49F8F080919400C0
:100AC00090919500049690939900809398008FEFF1
:100AD00080937102FF91EF91BF91AF919F918F91A0
:100AE0007F916F915F914F913F912F910F900BBE2E
:100AF0000F900FBE0F901F90189580E49CE9909383
:100B0000990080939800E3CF80917102992787FD27
:100B100090954896FC01EE0FFF1F8E0F9F1FFC0162
:100B2000ED58FD4F808186FF6FCF8091710299272C
:100B300087FD90954896FC01EE0FFF1F8E0F9F1FBB
:100B4000FC01ED58FD4F808160E08F73DFD620916E
:100B50006E0230E059CF10929500109294002091CF
:100B60006E0230E051CF1F920F920FB60F921124F8
:100B70000BB60F922F933F934F935F936F937F9397
:100B80008F939F93AF93BF93EF93FF9380917202E4
:100B900087FDB4C08091720220916E0230E09927E7
:100BA00087FD90958496821793070CF480C08091FE
:100BB00072028F5F8093720280917202992787FD83
:100BC00090958496821793070CF043C0809172022F
:100BD0008C300CF03EC02091A4003091A500809193
:100BE0007202992787FD90958496FC01EE0FFF1FF6
:100BF0008E0F9F1FFC01ED58FD4F81819281820F66
:100C0000931F9093A9008093A80080917202992766
:100C100087FD90958496FC01EE0FFF1F8E0F9F1F9E
:100C2000FC01ED58FD4F808186FF27C08091720244
:100C3000992787FD90958496FC01EE0FFF1F8E0F7C
:100C40009F1FFC01ED58FD4F808161E08F735ED6E0
:100C500014C08091A4009091A500049680349C4912
:100C6000F8F08091A4009091A50004969093A900BB
:100C70008093A8008FEF80937202FF91EF91BF9154
:100C8000AF919F918F917F916F915F914F913F9124
:100C90002F910F900BBE0F900FBE0F901F901895C5
:100CA00080E49CE99093A9008093A800E3CF809111
:100CB0007202992787FD90958496FC01EE0FFF1F25
:100CC0008E0F9F1FFC01ED58FD4F808186FF6FCF77
:100CD00080917202992787FD90958496FC01EE0F12
:100CE000FF1F8E0F9F1FFC01ED58FD4F808160E0BC
:100CF0008F730CD620916E0230E059CF1092A50070
:100D00001092A40020916E0230E051CF1F920F92FA
:100D10000FB60F9211240BB60F922F933F934F9360
:100D20005F936F937F938F939F93AF93BF93EF9353
:100D3000FF9380916F0287FDACC020916F0280917C
:100D40006E0290E0332727FD3095281739070CF401
:100D50007BC020916F022F5F20936F0220916F0262
:100D6000332727FD3095281739070CF03FC08091B5
:100D70006F028C30DCF520912401309125018091A7
:100D80006F02992787FD9095FC01EE0FFF1F8E0FD4
:100D90009F1FFC01ED58FD4F81819281820F931FAF
:100DA000909329018093280180916F02992787FDF4
:100DB0009095FC01EE0FFF1F8E0F9F1FFC01ED5859
:100DC000FD4F808186FF26C080916F02992787FDA5
:100DD0009095FC01EE0FFF1F8E0F9F1FFC01ED5839
:100DE000FD4F808161E08F7391D514C08091240103
:100DF00090912501049680349C49F8F0809124015B
:100E000090912501049690932901809328018FEFFA
:100E100080936F02FF91EF91BF91AF919F918F915E
:100E20007F916F915F914F913F912F910F900BBEEA
:100E30000F900FBE0F901F90189580E49CE990933F
:100E4000290180932801E3CF20916F02332727FDEA
:100E50003095F901EE0FFF1F2E0F3F1FF901ED58DE
:100E6000FD4F208126FF75CF80916F02992787FD66
:100E70009095FC01EE0FFF1F8E0F9F1FFC01ED5898
:100E8000FD4F808160E08F7341D580916E0290E0CC
:100E900060CF109225011092240180916E0290E0A3
:100EA00058CFFC0190916E02903318F08FEF808341
:100EB000089581E0890F80936E029083892F90E0DE
:100EC000FC01EE0FFF1F8E0F9F1FFC01ED58FD4F21
:100ED00088EB9BE0928381830895AF92BF92CF927B
:100EE000DF92EF92FF920F931F93CF935A01FC0171
:100EF0005081503358F0852FCF911F910F91FF9063
:100F0000EF90DF90CF90BF90AF9008957901C62FFA
:100F10008C0161E08C2FB9D4F8014081542FA42FAB
:100F2000B0E06D01CC0CDD1CF601EA0FFB1FED58A3
:100F3000FD4F6C2F6F73C081C07C6C2B608380E28F
:100F400092E08A199B0997FD53C0959587959595D1
:100F50008795F801818380E699E08E199F0997FDB6
:100F600045C09595879595958795F80182838BEA7D
:100F7000489F812D1124869586958695FCE08F9F4C
:100F800090011124B901645F7F4FF901EE0FFF1F3B
:100F9000E20FF31FED58FD4F908196FD1FC02F5FAC
:100FA0003F4F2617370789F7813021F1823009F446
:100FB00048C08330B9F51092A00082E08093A10070
:100FC0001092A5001092A40089BB80937200F801D2
:100FD0005081A52FB0E06D01CC0CDD1CAC0DBD1D0A
:100FE000AD58BD4F8C9180648C9385CF0396B9CF5B
:100FF0000396ABCF1092800082E080938100109224
:10100000850010928400B19A80916F008260809375
:101010006F00F8014081542FA42FB0E06D01CC0C7B
:10102000DD1CDCCF8111F7CF1092200182E080938C
:10103000210110922501109224018ABB8093730034
:10104000C6CF10929000809391001092950010925C
:10105000940088BB80937100F8014081DCCF20E6CA
:1010600039E040E252E039CFFC019081903308F53D
:10107000818128E830E0281B310987FD3395220F54
:10108000331F220F331F62177307A4F44FB7F8946E
:10109000892F90E0FC01EE0FFF1F8E0F9F1FFC01B8
:1010A000ED58FD4F22503109220F331F3283218327
:1010B0004FBF0895828128E532E0281B310987FD62
:1010C0003395220F331F220F331F62177307F4F675
:1010D0009B01DCCFFC01918D228D892F90E0805CFB
:1010E0009F4F821B91098F7399270895FC01918D61
:1010F000828D981731F0828DE80FF11D858D90E07B
:1011000008958FEF9FEF0895FC01918D828D9817C0
:1011100061F0828DDF01A80FB11D5D968C91928DDB
:101120009F5F9F73928F90E008958FEF9FEF0895D8
:1011300085E29AE0892B39F080E090E0892B19F064
:1011400084D181112EC080E090E0892B41F080E0B5
:1011500090E0892B21F00E94000081111FC080E0E7
:1011600090E0892B41F080E090E0892B21F00E94F3
:101170000000811110C080E090E0892B51F080E0E8
:1011800090E0892B31F00E940000882319F00C9424
:101190000000089508950E940000EDCF0E94000015
:1011A000DECF0E940000CFCFFC01848DDF01A80FAD
:1011B000B11DA35ABF4F2C91848D90E001968F737F
:1011C0009927848FA689B7892C93A089B1898C919E
:1011D00080648C93938D848D981308950288F3898D
:1011E000E02D80818F7D80830895CF93DF93EC0184
:1011F000888D8823B1F0EA89FB89A889B989908113
:1012000095FF0CC00FB607FCFACF908195FFF7CF82
:101210008C9185FFF4CFCE01C7DFEDCF8C9186FF97
:10122000F1CFDF91CF910895EF92FF920F931F932B
:10123000CF93DF93EC019B8D8C8D981789F1062F4E
:10124000EB8CF12C8FEFE81AF80A8FE3E822FF24E9
:101250001E2D03C00FB607FE1BC09C8D1917D1F3BE
:101260008B8DFE01E80FF11DE35AFF4F0083EB8EDB
:10127000EA89FB8980818062808381E0888F81E0B8
:1012800090E0DF91CF911F910F91FF90EF90089523
:10129000E889F989808185FFE0CFCE0185DFDDCF48
:1012A000E889F989808185FFCACFEE89FF8960834B
:1012B000E889F989808180648083E1CFBF92CF92F1
:1012C000DF92EF92FF920F931F93CF93DF93EC0186
:1012D0006A017B01B22EE889F98982E08083411599
:1012E00081EE580761057105A9F060E079E08DE3B2
:1012F00090E0A70196010DD589019A0101501109CD
:10130000210931093695279517950795011580E133
:101310001807A0F0E889F989108260E874E88EE186
:1013200090E0A7019601F5D4DA01C9010197A1095E
:10133000B109B695A795979587958C01EC85FD85A4
:101340001083EE85FF850083188EEC89FD89B082BD
:10135000EA89FB89808180618083EA89FB898081B9
:1013600088608083EA89FB89808180688083EA893C
:10137000FB8980818F7D8083DF91CF911F910F91B9
:10138000FF90EF90DF90CF90BF9008951F920F9243
:101390000FB60F9211240BB60F922F938F939F933A
:1013A000EF93FF93E0911303F09114038081E09198
:1013B0001903F0911A0382FD1DC0208180911C0346
:1013C0008F5F8F7390911D03891741F0E0911C038B
:1013D000F0E0ED5FFC4F258F80931C03FF91EF91B0
:1013E0009F918F912F910F900BBE0F900FBE0F907A
:1013F0001F9018958081F2CF1F920F920FB60F9217
:1014000011240BB60F922F933F934F935F936F93DB
:101410007F938F939F93AF93BF93EF93FF9383E05B
:1014200093E0C2DEFF91EF91BF91AF919F918F91B9
:101430007F916F915F914F913F912F910F900BBED4
:101440000F900FBE0F901F90189583E093E042DE3F
:1014500021E0892B09F420E0822F0895E3E0F3E0F6
:101460001382128288EE93E0A0E0B0E0848395833B
:10147000A683B7838CE292E09183808385EC90E031
:101480009587848784EC90E09787868780EC90E04E
:10149000918B808B81EC90E0938B828B82EC90E03F
:1014A000958B848B86EC90E0978B868B118E128EB9
:1014B000138E148E089508951FD1FDDF0E943B0105
:1014C000C8E9D8E00E94D3012097E1F331DEFACFDA
:1014D000CF92DF92EF92FF920F931F93CF93DF9300
:1014E00041155105F1F08C017B01EA01C12CD12C91
:1014F000D7016D917D01D801ED91FC910190F081B2
:10150000E02DC8011995C80ED91E219789F7C6018B
:10151000DF91CF911F910F91FF90EF90DF90CF90CF
:101520000895C12CD12CF3CF0F931F93CF93DF934A
:10153000EC01E881F9810190F081E02D6DE01995D1
:101540008C01E881F9810190F081E02D6AE0CE0103
:101550001995800F911FDF91CF911F910F910895E1
:101560000F931F93CF93DF93EC01E881F981DB01A7
:1015700014964D915C9115976D917C910280F38149
:10158000E02D19958C01CE01CFDF800F911FDF91E7
:10159000CF911F910F9108950F931F93CF93DF93D6
:1015A000EC019ED0688779878A879B8714C098D082
:1015B000088519852A853B85DC01CB01801B910BB1
:1015C000A20BB30B0C811D812E813F8180179107E7
:1015D000A207B30770F4E881F9810680F781E02D56
:1015E000CE01199597FDE3CFDF91CF911F910F9118
:1015F00008958FEF9FEFDF91CF911F910F91089585
:10160000EF92FF920F931F93CF93DF938C017B0197
:10161000C42F6FE172E006D2C701BEDF97FD0EC096
:10162000DD27C7FDD09507C0682FC801B7D2C70115
:10163000B3DF97FD03C08C179D07B1F7C801DF9199
:10164000CF911F910F91FF90EF9008951F920F92ED
:101650000FB60F9211242F933F938F939F93AF93C5
:10166000BF938091A1039091A203A091A303B09195
:10167000A4033091A00323E0230F2D3768F126E85F
:10168000230F0296A11DB11D2093A0038093A103F7
:101690009093A203A093A303B093A4038091A50306
:1016A0009091A603A091A703B091A8030196A11D54
:1016B000B11D8093A5039093A603A093A703B093B5
:1016C000A803BF91AF919F918F913F912F910F9060
:1016D0000FBE0F901F9018950196A11DB11DD4CF7C
:1016E0002FB7F8946091A1037091A2038091A30396
:1016F0009091A4032FBF0895789484B5826084BD2F
:1017000084B5816084BD85B5826085BD85B5816005
:1017100085BDEEE6F0E0808181608083E1E8F0E065
:101720001082808182608083808181608083E0E894
:10173000F0E0808181608083E1EBF0E08081846073
:101740008083E0EBF0E0808181608083E1E9F0E07C
:10175000808182608083808181608083E0E9F0E025
:10176000808181608083E1EAF0E080818260808313
:10177000808181608083E0EAF0E080818160808305
:10178000E1E2F1E0808182608083808181608083FA
:10179000E0E2F1E0808181608083EAE7F0E080812F
:1017A0008460808380818260808380818160808387
:1017B0008081806880831092C100089590E0FC01D0
:1017C0003197E231F10550F48827EE58FF4F8F4FE3
:1017D000C2C280912001877F80932001089584B543
:1017E0008F7784BD089584B58F7D84BD08958091E1
:1017F00080008F77809380000895809180008F7D96
:1018000080938000089580918000877F809380007E
:1018100008958091B0008F778093B00008958091F3
:10182000B0008F7D8093B0000895809190008F77F5
:10183000809390000895809190008F7D8093900018
:10184000089580919000877F809390000895809103
:10185000A0008F778093A00008958091A0008F7DD5
:101860008093A00008958091A000877F8093A000BE
:101870000895809120018F778093200108958091B1
:1018800020018F7D809320010895CF93DF9390E016
:10189000FC01E25BFE4F2491FC01EC56FE4F84916B
:1018A0008823B9F090E0880F991FFC01EC50FE4F9F
:1018B000A591B491FC01E652FE4FC591D4916623E7
:1018C00059F06230B9F08FB7F894EC91E22BEC93B9
:1018D0008FBFDF91CF9108959FB7F8948C91E22F3D
:1018E000E0958E238C932881E223E8839FBFDF91CC
:1018F000CF9108959FB7F8943C91822F80958323D0
:101900008C93E881E22BE8839FBFE3CF1F93CF93B3
:10191000DF93282F30E0F901E85FFE4F8491F90151
:10192000E25BFE4FD491F901EC56FE4FC491CC23FB
:10193000A9F0162F81111BC0EC2FF0E0EE0FFF1F56
:10194000E652FE4FA591B4918FB7F89411110AC0D9
:101950009C91ED2FE095E923EC938FBFDF91CF9120
:101960001F910895EC91ED2BEC938FBFF7CF26DFFD
:10197000E3CFFC01808191818BC20F931F93CF93A2
:10198000DF93FC0180819181009729F022813381CE
:101990002617370788F48B01EF016F5F7F4F10D355
:1019A000009781F0998388831B830A832C813D8172
:1019B000232B11F4FC01108281E0DF91CF911F9164
:1019C0000F91089580E0F9CFEF92FF920F931F934C
:1019D000CF93DF93EC017B018A01BA01CEDF811145
:1019E00013C088819981009709F052D21982188218
:1019F0001D821C821B821A82CE01DF91CF911F9122
:101A00000F91FF90EF9008951D830C83B70188819B
:101A10009981E9D3CE01DF91CF911F910F91FF9072
:101A2000EF900895FC0111821082138212821582B8
:101A300014826115710549F0FB0101900020E9F75E
:101A40003197AF01461B570BBFCF0895CF93DF935C
:101A5000EC01FB018617970741F0608171816115E8
:101A6000710539F044815581AFDFCE01DF91CF910F
:101A7000089588819981009709F00AD21982188205
:101A80001D821C821B821A82CE01DF91CF910895A4
:101A9000CF93DF93EC016115710569F0FB010190B3
:101AA0000020E9F73197AF01461B570B8DDFCE01C0
:101AB000DF91CF91089588819981009709F0E8D14D
:101AC000198218821D821C821B821A82CE01DF912C
:101AD000CF9108950F931F93CF93DF93CDB7DEB7C8
:101AE00062970FB6F894DEBF0FBECDBF8C01CB015D
:101AF000F80111821082138212821582148250E042
:101B0000BE016F5F7F4F90D3BE016F5F7F4FC801F3
:101B1000BFDF62960FB6F894DEBF0FBECDBFDF9178
:101B2000CF911F910F910895EF92FF920F931F9302
:101B3000CF93DF93FC012481358161157105A1F0FC
:101B40004115510541F481E0DF91CF911F910F9133
:101B5000FF90EF9008958B01EC017A01E20EF31EE5
:101B6000B7010BDF811108C080E0DF91CF911F9199
:101B70000F91FF90EF900895288139818C819D818C
:101B8000B801820F931F2FD3FD82EC8281E0DF9199
:101B9000CF911F910F91FF90EF900895CF93DF9316
:101BA0001F921F92CDB7DEB769831A8241E050E0E1
:101BB000BE016F5F7F4FB8DF0F900F90DF91CF9125
:101BC0000895CF93DF93EC01FB014481558160813F
:101BD0007181AADF81110BC088819981009709F07A
:101BE00057D1198218821D821C821B821A82CE0153
:101BF000DF91CF910895CF93DF93EC0161157105CB
:101C000059F0FB0101900020E9F73197AF01461B25
:101C1000570B8ADF81110BC088819981009709F0E9
:101C200037D1198218821D821C821B821A82CE0132
:101C3000DF91CF910895CF93DF93FC01248135810B
:101C40004217530788F4FB01DC01CD91DC916081E0
:101C50007181CE01840F951FCDD2009729F08C1B86
:101C60009D0BDF91CF9108958FEF9FEFFACF40E06A
:101C700050E0E1CFBF92CF92DF92EF92FF920F93AD
:101C80001F93CF93DF937C016B018A01E901241735
:101C9000350720F4812F8901C42FD82F6FE172E01E
:101CA000C701C0DED60114968D919C911597081737
:101CB0001907C0F48C179D0700F1D601ED91FC9136
:101CC0001197EC0FFD1FB08010824D915C91BA010D
:101CD000600F711FC701DCDEF60120813181C20F68
:101CE000D31FB882C701DF91CF911F910F91FF9051
:101CF000EF90DF90CF90BF900895EC01DECFFC0114
:101D000080819181009709F03FC260E070E0CB01D3
:101D10000895A1E21A2EAA1BBB1BFD010DC0AA1F2C
:101D2000BB1FEE1FFF1FA217B307E407F50720F044
:101D3000A21BB30BE40BF50B661F771F881F991FBF
:101D40001A9469F760957095809590959B01AC0108
:101D5000BD01CF010895EE0FFF1F881F8BBF0790B5
:101D6000F691E02D1994CF93DF938230910510F412
:101D700082E090E0E091AB03F091AC0320E030E032
:101D8000C0E0D0E0309711F14081518148175907E8
:101D9000C0F04817590761F482819381209719F0A8
:101DA0009B838A832BC09093AC038093AB0326C0A4
:101DB0002115310519F04217530718F49A01BE0195
:101DC000DF01EF010280F381E02DDCCF2115310529
:101DD00009F1281B390B2430310590F412968D91AE
:101DE0009C9113976115710521F0FB019383828308
:101DF00004C09093AC038093AB03FD01329644C0C2
:101E0000FD01E20FF31F81939193225031092D932D
:101E10003C933AC02091A9033091AA03232B41F4AB
:101E200020910202309103023093AA032093A90368
:101E300020910002309101022115310541F42DB7A6
:101E40003EB74091040250910502241B350BE091EE
:101E5000A903F091AA03E217F307A0F42E1B3F0B8E
:101E60002817390778F0AC014E5F5F4F241735070C
:101E700048F04E0F5F1F5093AA034093A90381932C
:101E8000919302C0E0E0F0E0CF01DF91CF9108959F
:101E90000F931F93CF93DF93009709F48CC0FC013D
:101EA0003297138212820091AB031091AC0301159B
:101EB000110581F420813181820F931F2091A903A4
:101EC0003091AA032817390779F5F093AA03E09314
:101ED000A90371C0D80140E050E0AE17BF0750F42D
:101EE00012962D913C911397AD012115310509F101
:101EF000D901F3CF9D01DA0133832283608171819F
:101F0000860F971F8217930769F4EC0128813981A6
:101F1000260F371F2E5F3F4F318320838A819B819D
:101F200093838283452B29F4F093AC03E093AB03B6
:101F300042C01396FC93EE931297ED01499159918B
:101F40009E01240F351FE217F30771F48081918100
:101F5000840F951F029611969C938E938281938194
:101F600013969C938E931297E0E0F0E0D8011296BE
:101F70008D919C911397009719F0F8018C01F6CF81
:101F80008D919C9198012E5F3F4F820F931F20915E
:101F9000A9033091AA032817390769F4309729F467
:101FA0001092AC031092AB0302C013821282109302
:101FB000AA030093A903DF91CF911F910F91089578
:101FC0006F927F928F929F92AF92BF92CF92DF9249
:101FD000EF92FF920F931F93CF93DF93EC01009743
:101FE00081F4CB01DF91CF911F910F91FF90EF9082
:101FF000DF90CF90BF90AF909F908F907F906F9029
:10200000B2CEFC01E60FF71F9C0122503109E21706
:10201000F30708F4A8C0D9010D911C911197061778
:102020001707A8F00530110508F49BC0C8010497F4
:102030008617970708F495C002501109061B170B65
:10204000019311936D937C93CF0122DF8AC05B01D2
:10205000A01AB10A4C01800E911EA091AB03B09161
:10206000AC0340E050E0E12CF12C109709F44AC099
:10207000A815B905D1F56D907C901197630182E0A8
:10208000C80ED11CCA14DB0480F1A3014A195B09F4
:102090006A0182E0C80ED11C1296BC90129713966A
:1020A000AC91B5E0CB16D10440F0B282A38351834A
:1020B0004083D9016D937C930AC00E5F1F4FC3010B
:1020C000800F911FF90191838083EB2DFA2FE1148A
:1020D000F10431F0D7011396FC93EE93129741C0AF
:1020E000F093AC03E093AB033CC08D919C911197AE
:1020F0004817590708F4AC017D0112960D90BC9168
:10210000A02DB3CF8091A9039091AA0388159905BA
:10211000E1F446175707C8F480910002909101023C
:10212000009741F48DB79EB740910402509105028B
:10213000841B950BE817F907B0F4F093AA03E0931A
:10214000A903F901718360830CC0CB010CDE7C0113
:10215000009749F0A801BE013DD0CE0199DEC7012C
:1021600004C0CE0102C080E090E0DF91CF911F91CA
:102170000F91FF90EF90DF90CF90BF90AF909F9026
:102180008F907F906F9008951F93FC019927882767
:10219000BC01E89411911032E9F3193010F01E30AF
:1021A000C8F31B3249F01D3241F4689405C050D089
:1021B000610F711D811D911D119110531A30B8F3DB
:1021C0003EF490958095709561957F4F8F4F9F4F0E
:1021D0001F910895FB01DC0102C001900D92415056
:1021E0005040D8F70895FB01DC0101900D920020CA
:1021F000E1F70895FB0151915523A9F0BF01DC01DE
:102200004D9145174111E1F759F4CD01019000209E
:1022100049F04D9140154111C9F3FB014111EFCF38
:1022200081E090E0019708954532510518F442305D
:1022300008F004C0FB011082CB010895BB274A308F
:1022400031F4992322F4BDE2909581959F4F16C0F9
:10225000592F482F372F262F660F771F881F991F5A
:10226000660F771F881F991F620F731F841F951FAA
:10227000660F771F881F991F0895BB27FB015527FD
:10228000AA27880F991FAA1FA41710F0A41B8395D3
:102290005051B9F7A05DAA3308F0A95DA19300974A
:1022A00079F7B111B1931192CB0100C0DC01FC01AF
:1022B000672F71917723E1F7329704C07C916D937A
:1022C00070836291AE17BF07C8F30895F894FFCFEB
:1022D0000000AD0320004C6567004C6567200020BE
:1022E00055707065722000204D6964646C65200033
:1022F000204C6F7765722000000000001409680A06
:082300006A0884087608F5085C
:00000001FF
